{
  "_format": "hh-sol-artifact-1",
  "contractName": "SchoolManagement",
  "sourceName": "contracts/SchoolManagement.sol",
  "abi": [
    {
      "inputs": [],
      "stateMutability": "nonpayable",
      "type": "constructor"
    },
    {
      "anonymous": false,
      "inputs": [
        {
          "indexed": false,
          "internalType": "uint256",
          "name": "id",
          "type": "uint256"
        },
        {
          "indexed": false,
          "internalType": "string",
          "name": "name",
          "type": "string"
        }
      ],
      "name": "StudentRegistered",
      "type": "event"
    },
    {
      "anonymous": false,
      "inputs": [
        {
          "indexed": false,
          "internalType": "uint256",
          "name": "id",
          "type": "uint256"
        }
      ],
      "name": "StudentRemoved",
      "type": "event"
    },
    {
      "inputs": [],
      "name": "admin",
      "outputs": [
        {
          "internalType": "address",
          "name": "",
          "type": "address"
        }
      ],
      "stateMutability": "view",
      "type": "function"
    },
    {
      "inputs": [],
      "name": "getAllStudents",
      "outputs": [
        {
          "internalType": "uint256[]",
          "name": "",
          "type": "uint256[]"
        }
      ],
      "stateMutability": "view",
      "type": "function"
    },
    {
      "inputs": [
        {
          "internalType": "uint256",
          "name": "_id",
          "type": "uint256"
        }
      ],
      "name": "getStudent",
      "outputs": [
        {
          "internalType": "string",
          "name": "name",
          "type": "string"
        },
        {
          "internalType": "bool",
          "name": "isRegistered",
          "type": "bool"
        }
      ],
      "stateMutability": "view",
      "type": "function"
    },
    {
      "inputs": [
        {
          "internalType": "uint256",
          "name": "_id",
          "type": "uint256"
        },
        {
          "internalType": "string",
          "name": "_name",
          "type": "string"
        }
      ],
      "name": "registerStudent",
      "outputs": [],
      "stateMutability": "nonpayable",
      "type": "function"
    },
    {
      "inputs": [
        {
          "internalType": "uint256",
          "name": "_id",
          "type": "uint256"
        }
      ],
      "name": "removeStudent",
      "outputs": [],
      "stateMutability": "nonpayable",
      "type": "function"
    }
  ],
  "bytecode": "0x608060405234801561001057600080fd5b50336000806101000a81548173ffffffffffffffffffffffffffffffffffffffff021916908373ffffffffffffffffffffffffffffffffffffffff1602179055506110ef806100606000396000f3fe608060405234801561001057600080fd5b50600436106100575760003560e01c80633f9586d41461005c578063642f9163146100785780636af83845146100a9578063e9e30927146100c5578063f851a440146100e3575b600080fd5b610076600480360381019061007191906107fd565b610101565b005b610092600480360381019061008d919061085d565b610314565b6040516100a0929190610935565b60405180910390f35b6100c360048036038101906100be919061085d565b61044a565b005b6100cd61067f565b6040516100da9190610a23565b60405180910390f35b6100eb6106d7565b6040516100f89190610a86565b60405180910390f35b60008054906101000a900473ffffffffffffffffffffffffffffffffffffffff1673ffffffffffffffffffffffffffffffffffffffff163373ffffffffffffffffffffffffffffffffffffffff161461018f576040517f08c379a000000000000000000000000000000000000000000000000000000000815260040161018690610b13565b60405180910390fd5b6001600084815260200190815260200160002060020160009054906101000a900460ff16156101f3576040517f08c379a00000000000000000000000000000000000000000000000000000000081526004016101ea90610b7f565b60405180910390fd5b604051806060016040528084815260200183838080601f016020809104026020016040519081016040528093929190818152602001838380828437600081840152601f19601f82011690508083019250505050505050815260200160011515815250600160008581526020019081526020016000206000820151816000015560208201518160010190816102879190610dda565b5060408201518160020160006101000a81548160ff02191690831515021790555090505060028390806001815401808255809150506001900390600052602060002001600090919091909150557f82972a188d7a560cf772804ac1cadfb42df2654ff1ded99159259c287ead263083838360405161030793929190610ef7565b60405180910390a1505050565b606060006001600084815260200190815260200160002060020160009054906101000a900460ff1661037b576040517f08c379a000000000000000000000000000000000000000000000000000000000815260040161037290610f75565b60405180910390fd5b600160008481526020019081526020016000206001016001600085815260200190815260200160002060020160009054906101000a900460ff168180546103c190610bfd565b80601f01602080910402602001604051908101604052809291908181526020018280546103ed90610bfd565b801561043a5780601f1061040f5761010080835404028352916020019161043a565b820191906000526020600020905b81548152906001019060200180831161041d57829003601f168201915b5050505050915091509150915091565b60008054906101000a900473ffffffffffffffffffffffffffffffffffffffff1673ffffffffffffffffffffffffffffffffffffffff163373ffffffffffffffffffffffffffffffffffffffff16146104d8576040517f08c379a00000000000000000000000000000000000000000000000000000000081526004016104cf90610b13565b60405180910390fd5b6001600082815260200190815260200160002060020160009054906101000a900460ff1661053b576040517f08c379a000000000000000000000000000000000000000000000000000000000815260040161053290610f75565b60405180910390fd5b6001600082815260200190815260200160002060008082016000905560018201600061056791906106fb565b6002820160006101000a81549060ff0219169055505060005b6002805490508110156106445781600282815481106105a2576105a1610f95565b5b90600052602060002001540361063157600260016002805490506105c69190610ff3565b815481106105d7576105d6610f95565b5b9060005260206000200154600282815481106105f6576105f5610f95565b5b9060005260206000200181905550600280548061061657610615611027565b5b60019003818190600052602060002001600090559055610644565b808061063c90611056565b915050610580565b507f59341c48fd0b57ee9c153818be62372ef211cc499da6c2c6d5b8fe49721f36c581604051610674919061109e565b60405180910390a150565b606060028054806020026020016040519081016040528092919081815260200182805480156106cd57602002820191906000526020600020905b8154815260200190600101908083116106b9575b5050505050905090565b60008054906101000a900473ffffffffffffffffffffffffffffffffffffffff1681565b50805461070790610bfd565b6000825580601f106107195750610738565b601f016020900490600052602060002090810190610737919061073b565b5b50565b5b8082111561075457600081600090555060010161073c565b5090565b600080fd5b600080fd5b6000819050919050565b61077581610762565b811461078057600080fd5b50565b6000813590506107928161076c565b92915050565b600080fd5b600080fd5b600080fd5b60008083601f8401126107bd576107bc610798565b5b8235905067ffffffffffffffff8111156107da576107d961079d565b5b6020830191508360018202830111156107f6576107f56107a2565b5b9250929050565b60008060006040848603121561081657610815610758565b5b600061082486828701610783565b935050602084013567ffffffffffffffff8111156108455761084461075d565b5b610851868287016107a7565b92509250509250925092565b60006020828403121561087357610872610758565b5b600061088184828501610783565b91505092915050565b600081519050919050565b600082825260208201905092915050565b60005b838110156108c45780820151818401526020810190506108a9565b60008484015250505050565b6000601f19601f8301169050919050565b60006108ec8261088a565b6108f68185610895565b93506109068185602086016108a6565b61090f816108d0565b840191505092915050565b60008115159050919050565b61092f8161091a565b82525050565b6000604082019050818103600083015261094f81856108e1565b905061095e6020830184610926565b9392505050565b600081519050919050565b600082825260208201905092915050565b6000819050602082019050919050565b61099a81610762565b82525050565b60006109ac8383610991565b60208301905092915050565b6000602082019050919050565b60006109d082610965565b6109da8185610970565b93506109e583610981565b8060005b83811015610a165781516109fd88826109a0565b9750610a08836109b8565b9250506001810190506109e9565b5085935050505092915050565b60006020820190508181036000830152610a3d81846109c5565b905092915050565b600073ffffffffffffffffffffffffffffffffffffffff82169050919050565b6000610a7082610a45565b9050919050565b610a8081610a65565b82525050565b6000602082019050610a9b6000830184610a77565b92915050565b7f4f6e6c792061646d696e2063616e20706572666f726d2074686973206163746960008201527f6f6e000000000000000000000000000000000000000000000000000000000000602082015250565b6000610afd602283610895565b9150610b0882610aa1565b604082019050919050565b60006020820190508181036000830152610b2c81610af0565b9050919050565b7f53747564656e7420616c72656164792072656769737465726564000000000000600082015250565b6000610b69601a83610895565b9150610b7482610b33565b602082019050919050565b60006020820190508181036000830152610b9881610b5c565b9050919050565b7f4e487b7100000000000000000000000000000000000000000000000000000000600052604160045260246000fd5b7f4e487b7100000000000000000000000000000000000000000000000000000000600052602260045260246000fd5b60006002820490506001821680610c1557607f821691505b602082108103610c2857610c27610bce565b5b50919050565b60008190508160005260206000209050919050565b60006020601f8301049050919050565b600082821b905092915050565b600060088302610c907fffffffffffffffffffffffffffffffffffffffffffffffffffffffffffffffff82610c53565b610c9a8683610c53565b95508019841693508086168417925050509392505050565b6000819050919050565b6000610cd7610cd2610ccd84610762565b610cb2565b610762565b9050919050565b6000819050919050565b610cf183610cbc565b610d05610cfd82610cde565b848454610c60565b825550505050565b600090565b610d1a610d0d565b610d25818484610ce8565b505050565b5b81811015610d4957610d3e600082610d12565b600181019050610d2b565b5050565b601f821115610d8e57610d5f81610c2e565b610d6884610c43565b81016020851015610d77578190505b610d8b610d8385610c43565b830182610d2a565b50505b505050565b600082821c905092915050565b6000610db160001984600802610d93565b1980831691505092915050565b6000610dca8383610da0565b9150826002028217905092915050565b610de38261088a565b67ffffffffffffffff811115610dfc57610dfb610b9f565b5b610e068254610bfd565b610e11828285610d4d565b600060209050601f831160018114610e445760008415610e32578287015190505b610e3c8582610dbe565b865550610ea4565b601f198416610e5286610c2e565b60005b82811015610e7a57848901518255600182019150602085019450602081019050610e55565b86831015610e975784890151610e93601f891682610da0565b8355505b6001600288020188555050505b505050505050565b610eb581610762565b82525050565b82818337600083830152505050565b6000610ed68385610895565b9350610ee3838584610ebb565b610eec836108d0565b840190509392505050565b6000604082019050610f0c6000830186610eac565b8181036020830152610f1f818486610eca565b9050949350505050565b7f53747564656e74206e6f7420666f756e64000000000000000000000000000000600082015250565b6000610f5f601183610895565b9150610f6a82610f29565b602082019050919050565b60006020820190508181036000830152610f8e81610f52565b9050919050565b7f4e487b7100000000000000000000000000000000000000000000000000000000600052603260045260246000fd5b7f4e487b7100000000000000000000000000000000000000000000000000000000600052601160045260246000fd5b6000610ffe82610762565b915061100983610762565b925082820390508181111561102157611020610fc4565b5b92915050565b7f4e487b7100000000000000000000000000000000000000000000000000000000600052603160045260246000fd5b600061106182610762565b91507fffffffffffffffffffffffffffffffffffffffffffffffffffffffffffffffff820361109357611092610fc4565b5b600182019050919050565b60006020820190506110b36000830184610eac565b9291505056fea264697066735822122040ca40707beb4ae019921ed6a062b67c0e39a00f57f2b0c0b4b471290486d5a464736f6c63430008140033",
  "linkReferences": {},
  "deployedLinkReferences": {}
}